:020000040000FA
:06000000EBEF09F0120015
:020006001200E6
:060008001CEF00F01200E5
:01000E0000F1
:0600180067EF00F012008A
:02001E000200DE
:10002000F2130000000E0000210000000E0000008E
:08003000310E00000100000088
:08003800DACFE4FFE2CFDAFFAA
:10004000E9CFE4FFEACFE4FFF6CFE4FFF7CFE4FF28
:10005000F5CFE4FFF3CFE4FFF4CFE4FFFACFE4FF02
:1000600000EE00F0100EE80403E3EECFE4FFFBD750
:1000700000EE10F0040EE80403E3EECFE4FFFBD73C
:10008000E65200EC08F0E55200EE13F0040EE8042E
:1000900003E3E5CFEDFFFBD700EE0FF0100EE80411
:1000A00003E3E5CFEDFFFBD7E5CFFAFFE5CFF4FFA4
:1000B000E5CFF3FFE5CFF5FFE5CFF7FFE5CFF6FF9F
:1000C000E5CFEAFFE5CFE9FFE5CFDAFF1100DACFB0
:1000D000E4FFE2CFDAFFE652E552E5CFDAFF1100A6
:1000E000700ED36E9B8C010EC26E300EC16E960EDA
:1000F000C06E0F013F0E5D6F5C6B2F0E926E936AA8
:10010000946A0F0E956E010E966E8A6AE00EF26E7C
:10011000040EF16E010E9D6E9F6E630ED76EC00EC3
:10012000D66E820ED56EE80ECF6E900ECE6E2D0E70
:10013000CD6EA20EAC6E980EAB6E400EA76E670E23
:10014000AF6E010EE66E68EC08F0E552F3CF03FEE9
:10015000F4CF04FE030EE66E68EC08F0E552F3CF30
:1001600005FEF4CF06FE050EE66E68EC08F0E552DB
:10017000F3CF07FEF4CF08FE070EE66E68EC08F03A
:10018000E552F3CF09FEF4CF0AFE090EE66E68ECE5
:1001900008F0E552F3CF0BFEF4CF0CFE0B0EE66E2B
:1001A00068EC08F0E552F3CF0DFEF4CF0EFE640EBE
:1001B000E66EE66AA4EC08F0E552E552A5EC06F01E
:1001C000E2EF00F01AEC06F0E66A96EC06F0E55273
:1001D0005F0EE66E130EE66E27EC06F0E552E55272
:1001E000E66A7D0EE66EE66ABEEC07F0E552E55281
:1001F000E552010EE66E7D0EE66EE66ABEEC07F095
:10020000E552E552E55283B46ED01AEC06F0E66A88
:1002100096EC06F0E552040EE66EE66A03CEE6FFC3
:1002200004CEE6FFEFEC06F0E552E552E552E5526A
:10023000200EE66E48EC06F0E552040EE66EE66A25
:1002400005CEE6FF06CEE6FFEFEC06F0E552E552FE
:10025000E552E552200EE66E48EC06F0E552040E3B
:10026000E66EE66A07CEE6FF08CEE6FFEFEC06F0A4
:10027000E552E552E552E552400EE66E96EC06F088
:10028000E552040EE66EE66A09CEE6FF0ACEE6FF08
:10029000EFEC06F0E552E552E552E552200EE66E2F
:1002A00048EC06F0E552040EE66EE66A0BCEE6FF79
:1002B0000CCEE6FFEFEC06F0E552E552E552E552D2
:1002C000200EE66E48EC06F0E552040EE66EE66A95
:1002D0000DCEE6FF0ECEE6FFEFEC06F0E552E5525E
:1002E000E552E552FFD783A0F2D883A2AFDBE66ADE
:1002F0007D0EE66EE66ABEEC07F0E552E552E55289
:10030000010EE66E7D0EE66EE66ABEEC07F0E55283
:10031000E552E552010EE66EA5D8E552F3CF10F096
:10032000F4CF11F00E011050055D1150065902E294
:100330001C6B02D0010E1C6F320EE66EE66AA4EC56
:1003400008F0E552E552020EE66E8CD8E552F3CF86
:1003500010F0F4CF11F00E011050075D1150085944
:1003600002E21D6B02D0010E1D6F320EE66EE66AD0
:10037000A4EC08F0E552E552030EE66E73D8E552A0
:10038000F3CF10F0F4CF11F00E011050095D1150B1
:100390000A5902E21E6B02D0010E1E6F320EE66E8B
:1003A000E66AA4EC08F0E552E552040EE66E5AD86F
:1003B000E552F3CF10F0F4CF11F00E0110500B5DA9
:1003C00011500C5902E21F6B02D0010E1F6F1AEC84
:1003D00006F0E66A96EC06F0E552010EE66EE66A75
:1003E0000E011C51E66EE66AEFEC06F0E552E552AE
:1003F000E552E552200EE66E48EC06F0E552010E9D
:10040000E66EE66A0E011D51E66EE66AEFEC06F056
:10041000E552E552E552E552200EE66E48EC06F054
:10042000E552010EE66EE66A0E011E51E66EE66AC0
:10043000EFEC06F0E552E552E552E552200EE66E8D
:1004400048EC06F0E552010EE66EE66A0E011F5119
:10045000E66EE66AEFEC06F0E552E552E552E5524B
:1004600046D71200D9CFE6FFE1CFD9FF020EE12631
:10047000DE6ADD6AFE0EDB501F0BF36EF346F346B9
:10048000830EC214F310C26EC282C2B2FED7C45031
:10049000DE6EDD6ADECF12F0DDCF13F012C013F096
:1004A000126AC35000011224106E000E1320116E48
:1004B00010C0F3FF11C0F4FF020EE15C03E200D0B4
:1004C000E16AE552E16EE552E7CFD9FF1200E66A34
:1004D00096EC06F0E5524E0EE66E130EE66E27EC35
:1004E00006F0E552E552400EE66E96EC06F0E55257
:1004F0003E0EE66E130EE66E27EC06F0E552E55270
:10050000E80EE66E030EE66EA4EC08F0E552E55246
:100510004E0EE66E96EC06F0E5523C0EE66E130EBD
:10052000E66E27EC06F0E552E552E80EE66E030EA5
:10053000E66EA4EC08F0E552E5524E0EE66E96EC3F
:1005400006F0E5523A0EE66E130EE66E27EC06F064
:10055000E552E552E80EE66E030EE66EA4EC08F0F6
:10056000E552E5524E0EE66E96EC06F0E552380E78
:10057000E66E130EE66E27EC06F0E552E552E80E45
:10058000E66E030EE66EA4EC08F0E552E5524E0E60
:10059000E66E96EC06F0E552360EE66E130EE66E4B
:1005A00027EC06F0E552E552E80EE66E030EE66E25
:1005B000A4EC08F0E552E552E66A54DFE552F3CFC9
:1005C0000FFEF4CF10FE320EE66EE66AA4EC08F0E1
:1005D000E552E552010EE66E45DFE552F3CF11FE1E
:1005E000F4CF12FE320EE66EE66AA4EC08F0E55295
:1005F000E552020EE66E36DFE552F3CF13FEF4CF7E
:1006000014FE320EE66EE66AA4EC08F0E552E552FE
:10061000030EE66E27DFE552F3CF15FEF4CF16FE8C
:10062000320EE66EE66AA4EC08F0E552E552040EDE
:10063000E66E18DFE552F3CF17FEF4CF18FE320E48
:10064000E66EE66AA4EC08F0E552E552050EE66EA9
:1006500009DFE552F3CF19FEF4CF1AFE320EE66E33
:10066000E66AA4EC08F0E552E552400EE66E96EC20
:1006700006F0E552280EE66E130EE66E27EC06F045
:10068000E552E552B80EE66E0B0EE66EA4EC08F0ED
:10069000E552E552E66A96EC06F0E5524E0EE66E3D
:1006A000130EE66E27EC06F0E552E552400EE66EBC
:1006B00096EC06F0E552180EE66E130EE66E27EC89
:1006C00006F0E552E552E80EE66E030EE66EA4EC87
:1006D00008F0E552E5524E0EE66E96EC06F0E55255
:1006E0003C0EE66E130EE66E27EC06F0E552E55280
:1006F000E80EE66E030EE66EA4EC08F0E552E55255
:100700004E0EE66E96EC06F0E5523A0EE66E130ECD
:10071000E66E27EC06F0E552E552E80EE66E030EB3
:10072000E66EA4EC08F0E552E5524E0EE66E96EC4D
:1007300006F0E552380EE66E130EE66E27EC06F074
:10074000E552E552E80EE66E030EE66EA4EC08F004
:10075000E552E5524E0EE66E96EC06F0E552360E88
:10076000E66E130EE66E27EC06F0E552E552E80E53
:10077000E66E030EE66EA4EC08F0E552E552E66A7A
:1007800071DEE5520E010F51F3240F6F1051F4206A
:10079000106F320EE66EE66AA4EC08F0E552E55200
:1007A000010EE66E5FDEE5520E011151F324116F6A
:1007B0001251F420126F320EE66EE66AA4EC08F0D5
:1007C000E552E552020EE66E4DDEE5520E01135182
:1007D000F324136F1451F420146F320EE66EE66AA0
:1007E000A4EC08F0E552E552030EE66E3BDEE5525E
:1007F0000E011551F324156F1651F420166F320EA9
:10080000E66EE66AA4EC08F0E552E552040EE66EE8
:1008100029DEE5520E011751F324176F1851F42009
:10082000186F320EE66EE66AA4EC08F0E552E55267
:10083000050EE66E17DEE5520E011951F324196F0D
:100840001A51F4201A6F320EE66EE66AA4EC08F034
:10085000E552E552400EE66E96EC06F0E552280EA3
:10086000E66E130EE66E27EC06F0E552E552B80E82
:10087000E66E0B0EE66EA4EC08F0E552E552010EB2
:100880000F0B0E0105E0D89010330F33E806FBE1A3
:10089000010E0F0B0E0105E0D89012331133E8065C
:1008A000FBE1010E0F0B0E0105E0D890143313335A
:1008B000E806FBE1010E0F0B0E0105E0D8901633A0
:1008C0001533E806FBE1010E0F0B0E0105E0D89091
:1008D00018331733E806FBE1010E0F0B0E0105E09C
:1008E000D8901A331933E806FBE11AEC06F0E66AF1
:1008F00096EC06F0E552040EE66EE66A0FCEE6FFD1
:1009000010CEE6FFEFEC06F0E552E552E552E55277
:10091000200EE66E48EC06F0E552040EE66EE66A3E
:1009200011CEE6FF12CEE6FFEFEC06F0E552E552FF
:10093000E552E552200EE66E48EC06F0E552040E54
:10094000E66EE66A13CEE6FF14CEE6FFEFEC06F0A5
:10095000E552E552E552E552400EE66E96EC06F0A1
:10096000E552040EE66EE66A15CEE6FF16CEE6FF09
:10097000EFEC06F0E552E552E552E552200EE66E48
:1009800048EC06F0E552040EE66EE66A17CEE6FF86
:1009900018CEE6FFEFEC06F0E552E552E552E552DF
:1009A000200EE66E48EC06F0E552040EE66EE66AAE
:1009B00019CEE6FF1ACEE6FFEFEC06F0E552E5525F
:1009C000E552E552010EE66E0FCEE6FF10CEE6FFD1
:1009D0003AEC08F0E552E552E552030EE66E11CE10
:1009E000E6FF12CEE6FF3AEC08F0E552E552E5529A
:1009F000050EE66E13CEE6FF14CEE6FF3AEC08F0E5
:100A0000E552E552E552070EE66E15CEE6FF16CE2C
:100A1000E6FF3AEC08F0E552E552E552090EE66EC3
:100A200017CEE6FF18CEE6FF3AEC08F0E552E552A5
:100A3000E5520B0EE66E19CEE6FF1ACEE6FF3AEC53
:100A400008F0E552E552E552FFD71200E66A0ADDEA
:100A5000E552F3CF0FFEF4CF10FE320EE66EE66ADB
:100A6000A4EC08F0E552E552010EE66EFBDCE5521F
:100A7000F3CF11FEF4CF12FE320EE66EE66AA4EC5E
:100A800008F0E552E552020EE66EECDCE552F3CFDB
:100A900013FEF4CF14FE320EE66EE66AA4EC08F004
:100AA000E552E552030EE66EDDDCE552F3CF15FEAE
:100AB000F4CF16FE320EE66EE66AA4EC08F0E552BC
:100AC000E552040EE66ECEDCE552F3CF17FEF4CF0E
:100AD00018FE320EE66EE66AA4EC08F0E552E55226
:100AE000050EE66EBFDCE552F3CF19FEF4CF1AFE19
:100AF000320EE66EE66AA4EC08F0E552E5521AEC16
:100B000006F0E66A96EC06F0E552040EE66EE66A3A
:100B10000FCEE6FF10CEE6FFEFEC06F0E552E55211
:100B2000E552E552200EE66E48EC06F0E552040E62
:100B3000E66EE66A11CEE6FF12CEE6FFEFEC06F0B7
:100B4000E552E552E552E552200EE66E48EC06F01D
:100B5000E552040EE66EE66A13CEE6FF14CEE6FF1B
:100B6000EFEC06F0E552E552E552E552400EE66E36
:100B700096EC06F0E552040EE66EE66A15CEE6FF48
:100B800016CEE6FFEFEC06F0E552E552E552E552EF
:100B9000200EE66E48EC06F0E552040EE66EE66ABC
:100BA00017CEE6FF18CEE6FFEFEC06F0E552E55271
:100BB000E552E552200EE66E48EC06F0E552040ED2
:100BC000E66EE66A19CEE6FF1ACEE6FFEFEC06F017
:100BD000E552E552E552E552E80EE66E030EE66E8A
:0C0BE000A4EC08F0E552E55231D71200F9
:040BEC00D9CFE6FF78
:100BF000E1CFD9FFFE0EDB50F00B106E0F0E8A1402
:100C000010108A6E8A868A96FE0EDB38F00BF00B87
:100C1000106E0F0E8A1410108A6E8A868A96C80E7D
:100C2000E66EE66AD1EC08F0E552E552E552E7CF10
:100C3000D9FF12008A94010EE66ED8DFE552050E48
:100C4000E66EE66AA4EC08F0E552E5521200D9CF50
:100C5000E6FFE1CFD9FF8A84FD0EDBCFF6FFFE0E63
:100C6000DBCFF7FF0800F5500FE0FD0EDBCFF6FFFE
:100C7000DB2AFE0EDBCFF7FF01E3DB2A0800F5508D
:100C8000E66EB4DFE552E8D7E552E7CFD9FF1200B0
:100C9000D9CFE6FFE1CFD9FF8A84FE0EDBCFE6FF96
:100CA000A5DFE552E552E7CFD9FF1200D9CFE6FF25
:100CB000E1CFD9FF020EE1268A84080EDE6EDD6ADE
:100CC000D9CFE9FFDACFEAFF000ED880EE54000E4C
:100CD000ED5422E2DECF10F0DDCF11F01006000E51
:100CE000115AFE0EDB5010C0E7FFE75204E0E84265
:100CF0007F0BE706FCE1010B300FE66EC9DFE55222
:100D0000050EE66EE66AA4EC08F0E552E552DF0651
:100D1000010E01E2DB06D4D7020EE15C02E2E16AD9
:100D2000E552E16EE552E7CFD9FF1200D9CFE6FFD9
:100D3000E1CFD9FF8A94FE0EDB50800FE66E56DFBE
:100D4000E552E552E7CFD9FF12008A948A96030E46
:100D5000E66E4CDFE5520A0EE66EE66AA4EC08F099
:100D6000E552E552030EE66E41DFE5520A0EE66EED
:100D7000E66AA4EC08F0E552E552030EE66E36DFB3
:100D8000E5520A0EE66EE66AA4EC08F0E552E5527A
:100D9000020EE66E2BDFE5520A0EE66EE66AA4EC62
:100DA00008F0E552E552280EE66E20DFE5520A0E05
:100DB000E66EE66AA4EC08F0E552E5520C0EE66E2B
:100DC00015DFE55237DF0A0EE66EE66AA4EC08F09E
:100DD000E552E552060EE66E09DFE5521200D9CF64
:100DE000E6FFE1CFD9FF090EE126DF6A010EDB6ADB
:100DF000020EDB6A030EDB6A040EDB6A060EDB6A98
:100E0000070EDB6A040EF36E080EF3CFDBFFD9503A
:100E1000FD0FE96EFF0EDA20EA6EEE50ED1039E0BC
:100E2000FD0EDBCF12F0FE0EDBCF13F00A0E0B6EC1
:100E30000C6A12C006F013C007F0B5EC09F002C04E
:100E400012F003C013F0D9CF10F0DACF11F0080E72
:100E5000DB500F011024E96E000E1120EA6E12C063
:100E6000EFFF0A0E106E116AFD0EDBCF06F0FE0ECC
:100E7000DBCF07F010C00BF011C00CF0B5EC09F09F
:100E8000FD0E06C0DBFFFE0E07C0DBFF080EDB0613
:100E9000BED7D950FB0FE96EFF0EDA20EA6EFF0EC7
:100EA000EE1802E1FF0EED1815E1D9CF10F0DACF00
:100EB00011F0060EDB501024E96E070EDB501120F6
:100EC000EA6EEF5006E1060EDB2A070E01E3DB2A8D
:100ED000ECD711D0FB0EDBCF10F0FC0EDBCF11F006
:100EE000050ED8801056000E1156060E10C0DBFFFE
:100EF000070E11C0DBFFFD0EDBCF10F0FE0EDBCFC7
:100F000011F0000E105C000E115807E2680EE66E3C
:100F1000130EE66E9CDEE552E552060EDB50E76EE0
:100F2000080EE7CFDBFF050EF36E080EDBCFF4FFF4
:100F3000F350F45C19E2D9CF10F0DACF11F0080EBB
:100F4000DB500F011024E96E000E1120EA6EEF5005
:100F5000300FE76E050EE7CFDBFFDBCFE6FF98DE55
:100F6000E552080EDB2ADFD7090EE15C02E2E16AF6
:0C0F7000E552E16EE552E7CFD9FF120018
:040F7C00D9CFE6FFE4
:100F8000E1CFD9FFFC0EDB50020802E2FC0EDB6A67
:100F9000D950FD0FE96EFF0EDA20EA6EFA0ED88006
:100FA000EE54000EED5407E2FA0EF36EFD0EF3CF91
:100FB000DBFFFE0EDB6AFD0EDBCF10F0FE0EDBCF9B
:100FC00011F0040ED89010361136E806FBE1126AD3
:100FD000C00E1026E00E1122000E1222FC0EEA6A4C
:100FE000DB34FE0BEA36E96E2B0EE9260E0EEA2202
:100FF00010C0EEFF11C0EDFFE552E7CFD9FF1200A0
:10100000F2A40DD0D59E630ED76EC00ED66EE80E3C
:10101000CF6E900ECE6E0E01316BF294D58E9EA0E7
:1010200028D0CD900E01312B3151030A1BE0010A6B
:101030000EE0030A01E01BD08A808A922CCE10F0C9
:10104000116A1050CF6E0E012B51CE6E10D08A90C7
:101050008A822ECE10F0116A1050CF6E0E012D51E3
:10106000CE6E05D08A908A92CF6ACE6A00D09E90CA
:04107000CD8012001D
:0C107400D9CFE6FFE1CFD9FFFF0EE76EF9
:10108000FD0EDBCF10F0FE0EDBCF11F0E750101697
:10109000116A1050E66EFC0EDBCFE6FF58EC09F04B
:1010A000E552E552FD0EDBCF10F0FE0EDBCF11F066
:1010B00011C010F0116A1050E66EFC0EDB28E66ECF
:1010C00058EC09F0E552E552E552E7CFD9FF12009E
:1010D000D9CFE6FFE1CFD9FF020EE126DE6ADD6A55
:1010E000FE0EDB28E66E7CEC09F0E552DE6EDD6A72
:1010F000DECF12F0DDCF13F012C013F0126A12C06F
:10110000E6FF13C0E6FFFE0EDBCFE6FF7CEC09F046
:10111000E552E552E7CF13F0E552E7CF12F00001B8
:101120001224106E000E1320116E10C0F3FF11C0B8
:10113000F4FF020EE15C03E200D0E16AE552E16EE9
:08114000E552E7CFD9FF1200D0
:08114800D9CFE6FFE1CFD9FF8A
:10115000020EE126DE6ADD6ADE6ADD6ADECF10F0AD
:10116000DDCF11F0FD0EDBCF12F0FE0EDBCF13F062
:101170001250105C135011580AE2100EE66ECBECC0
:1011800009F0E552DF2A010E01E3DB2AE7D7020E60
:10119000E15C02E2E16AE552E16EE552E7CFD9FF98
:1011A0001200D9CFE6FFE1CFD9FF020EE126DE6AB9
:1011B000DD6ADE6ADD6ADECF10F0DDCF11F0FD0EF4
:1011C000DBCF12F0FE0EDBCF13F01250105C135089
:1011D000115815E2000000000000000000000000AF
:1011E00000000000000000000000000000000000FF
:1011F00000000000DF2A010E01E3DB2ADCD7020E2B
:10120000E15C02E2E16AE552E16EE552E7CFD9FF27
:021210001200CA
:0E1212001E0EF66E000EF76E000EF86E0E0148
:101220000900F550266F0900F550276F03E1266786
:1012300001D03DD00900F550216F0900F550226F13
:101240000900F550236F09000900F550E96E090007
:10125000F550EA6E090009000900F550246F0900F5
:10126000F550256F09000900F6CF28FEF7CF29FEBB
:10127000F8CF2AFE21CEF6FF22CEF7FF23CEF8FFCD
:101280000E01245302E1255307E00900F550EE6EEC
:101290002407F8E22507F9D728CEF6FF29CEF7FF75
:1012A0002ACEF8FF0E012607000E275BBFD71200DB
:1012B000D9CFE6FFE1CFD9FFE652FE0EDB50746EC8
:1012C000FD0EDB50736E7F9E7F9C7F84F250DF6E3D
:1012D000F26A550E7E6EAA0E7E6E7F82DF50F26E2F
:1012E0000000B7BC02D00000FCD77F94B79CE55249
:1012F000E552E7CFD9FF1200D9CFE6FFE1CFD9FF02
:10130000FE0EDB50746E7F9E7F9C7F80735000D0FA
:08131000E552E7CFD9FF1200FE
:081318007768697465207375A4
:10132000726661636520350056414C554553205324
:101330004156454421003100320033003400626CD4
:1013400061636B2073757266616365203500506C54
:101350006163652053656E736F7273206F6E004C0E
:0A136000696E6520426F74002D00D5
:06136A00036A026A100E86
:10137000E76ED89006360736023603360B50025C0D
:101380000C50035805E30B50025E0C50035A062A1A
:06139000E72EF0D7120069
:0A139600FF0EE350146E480E01D064
:1013A0004C0EE76EE72EFED7E76AE72EFED7142E27
:0613B000F7D70000120057
:0A13B600410EF36E00EE00F00E0E83
:1013C00001D81200EA6002D0EE6AFCD7F350E9605F
:0613D0001200EE6AFCD7DA
:0A13D6001DEE00F02DEE00F0F86AA5
:1013E0000F9C09EC09F003EC00F070EC00F0FBD767
:0213F0001200E9
:0E13F2000000000000000000000000000000ED
:1014000000000000000000000000000000000000DC
:03141000000000D9
:020000040030CA
:0100010018E6
:010002007984
:010003007C80
:010005008971
:00000001FF
