:04000000BBEF15F04D
:100F000000010000000A00000064000000E8030087
:100F10000010270000A086010040420F0080969834
:100F20000000E1F50500CA9A3B00803F0020410027
:100F3000C842007A44401C4650C34724744997185D
:100F40004BBCBE4C6B6E4E03155079AD60F34971CE
:100F500000803FCDCC3DD7233C12833AB7D138C671
:100F60002737388635C0D633CC2B32708930E7DB53
:100F70002EE53C1E42A20D0A566F6C74733A202572
:100F8000342E35660A000A4144433A2025342E3572
:100F900066004164633A2025640A0068656C6C0051
:030FA0002D000021
:100FA400420E0001A76F000EA86F71EF0CF0250E22
:100FB400BC19D8B405D0BC517EEC16F071EF0CF01E
:100FC400000E0001AC6F000EAB6F000EAA6F000E96
:100FD400A96F40C0F6FF41C0F7FF0800F5506FEC61
:100FE40016F0D8A034D0000E0001AC6F000EAB6F29
:100FF400ABC00FF0ACC010F0000E126E0A0E116EF2
:1010040038EC16F00FC0ABF010C0ACF0D00E456E4B
:10101400FF0E466E40C0F6FF41C0F7FF0800F550D2
:10102400476E486A455047264650482247500001BB
:10103400AB274850AC23404A412A40C0F6FF41C088
:10104400F7FF0800F5506FEC16F0D8B0D1D740C0C8
:10105400F6FF41C0F7FF0800F5502E0AD8A430D09F
:101064000001AA8D404A412A000EBB6F000EBA6FE0
:101074001CD0BAC00FF0BBC010F0000E126E0A0EE6
:10108400116E38EC16F040C0F6FF41C0F7FF0800BF
:10109400F5500F26000E1022D00E0F240001BA6F57
:1010A400FF0E1020BB6F404A412A40C0F6FF41C0EA
:1010B400F7FF0800F5506FEC16F0D8A00AD0D9D786
:1010C400000E0001BB6F000EBA6FAA8902D0AA8578
:1010D40017D040C0F6FF41C0F7FF404A412A08003C
:1010E400F5CFBCF00001BC51000AD8B41200640A68
:1010F400D8B406D0020AD8B4EAD70F0AD8A4EFD3DA
:10110400070EAA15D8B4E5D2AAA904D0000EBB6F65
:10111400060EBA6FA7C0D9FFA8C0DAFFDECFB7F0BA
:10112400DECFB8F0DDCFB9F0030EA727000EA82359
:10113400B9AF11D0B7C001F0B8C002F0B9C003F024
:101144004BEC16F001C0B7F002C0B8F003C0B9F020
:10115400030E0001A913000EB66F000EB56FB75150
:10116400B811B911D8B486D0820E456EFF0E466E02
:10117400B7C047F0B8C048F0B9C049F0BAC04AF0A7
:10118400100E05D0D8904A32493248324732E82E00
:10119400F9D747504524B56F000E4620B66FB50702
:1011A400D8A0B607B5C00FF0B6C010F0000E126E8E
:1011B400030E116E38EC16F00FC0B5F010C0B6F087
:1011C400B5C007F0B6C008F0000E0A6E0A0E096E2C
:1011D4009FEC14F007C0B5F008C0B6F00001B6AF3C
:1011E40003D0B507D8A0B607B551000880EC0CF0C1
:1011F40024C0ADF025C0AEF026C0AFF0ADC015F0F0
:10120400AEC016F0AFC017F0B7C018F0B8C019F0F0
:10121400B9C01AF099EC12F015C0ADF016C0AEF0DA
:1012240017C0AFF0ADC001F0AEC002F0AFC003F024
:10123400000E046E800E056E3F0E066E57EC14F021
:10124400D8B005D00001B507D8A0B60713D0ADC0FB
:1012540001F0AEC002F0AFC003F0000E046E200E29
:10126400056E410E066E57EC14F0D8A003D00001B1
:10127400B54BB62B0001BBBF06D0BB511BE10D0E15
:10128400BA5DD8B017D0B7C02EF0B8C02FF0B9C02F
:1012940030F0BA5184EC0EF024C031F025C032F0A5
:1012A40026C033F096EC10F02EC0B7F02FC0B8F083
:1012B40030C0B9F00001B6BF06D0B65120E10A0E25
:1012C400B55DD8B01CD0B751B811B911D8B456D047
:1012D400B7C02BF0B8C02CF0B9C02DF013EC13F04C
:1012E4002B502C102D102E10D8A448D00001B6BFBE
:1012F40045D0B65104E1020EB55DD8A03FD0ADC0D3
:1013040001F0AEC002F0AFC003F0700E046E890E9F
:10131400056E400E066E57EC14F0D8B003D00001F1
:10132400F70E02D00001F80EB527FF0EB623B55113
:1013340080EC0CF024C0ADF025C0AEF026C0AFF0B8
:10134400B7C001F0B8C002F0B9C003F0ADC004F0FA
:10135400AEC005F0AFC006F06CEC11F001C0B1F006
:1013640002C0B2F003C0B3F004C0B4F0000E000138
:10137400B76F000EB86F000EB96F33D0B7C02BF043
:10138400B8C02CF0B9C02DF013EC13F02BC0B1F0A1
:101394002CC0B2F02DC0B3F02EC0B4F0B7C03AF0F8
:1013A400B8C03BF0B9C03CF0B1C009F0B2C00AF01B
:1013B400B3C00BF0B4C00CF08DEC15F009C03DF0D7
:1013C4000AC03EF00BC03FF0E1EC15F03AC0B7F0B4
:1013D4003BC0B8F03CC0B9F0000E0001B66F000E7F
:1013E400B56F010EBC6F0A0EBC19D8B418D0BC512D
:1013F400040D010EF324F66E0F0EF420F76E0900AF
:10140400F550B15D0900F550B2590900F550B359D2
:101414000900F550B459D8A002D0BC2BE4D7BCC005
:1014240045F0466A45BE4606BA514526BB5146229A
:10143400B5514526B65146224550AB5F4650AC5B8C
:10144400BA51BB11D8B403D0AB07D8A0AC07030E74
:10145400A915456E000EAA15466E45504610D8B41F
:1014640008D004D0200E7EEC16F00001AB07D8A003
:10147400AC07ACBF05D0AC51F5E1AB05D8B0F2D7A1
:10148400030EA915456E000EAA15466E455046106A
:10149400D8B44AD02D0E7EEC16F046D0B1C001F07F
:1014A400B2C002F0B3C003F0B4C004F00001BC51F8
:1014B400040D010EF324F66E0F0EF420F76E0900EE
:1014C400F5CF05F00900F5CF06F00900F5CF07F0D8
:1014D4000A00F5CF08F0E1EC14F001C0ADF002C051
:1014E400AEF003C0AFF004C0B0F0ADC00EF0AEC0BB
:1014F4000FF0AFC010F0B0C011F00A0E126E000E63
:10150400136E000E146E000E156E5AEC15F00EC01C
:10151400ADF00FC0AEF010C0AFF011C0B0F00001DC
:10152400AD51300F7EEC16F00001BC07BC29D8B4D5
:1015340008D0B4D7300E7EEC16F00001B507D8A061
:10154400B607B6BF05D0B651F5E1B505D8B0F2D7A8
:10155400BBBF09D0BB5104E1090EBA5DD8A003D0CA
:10156400080EBC6F02D0BAC0BCF0BC51BA5F000E0A
:10157400BCBFFF0EBB5BBC51D8B403D02E0E7EECB7
:1015840016F00001BC5180EC0CF024C0A4F025C07E
:10159400A5F026C0A6F0B7C018F0B8C019F0B9C0BD
:1015A4001AF0A4C015F0A5C016F0A6C017F099EC67
:1015B40012F015C02BF016C02CF017C02DF013EC50
:1015C40013F02BC0B1F02CC0B2F02DC0B3F02EC07C
:1015D400B4F06DD0B1C001F0B2C002F0B3C003F0FA
:1015E400B4C004F00001BC51040D010EF324F66EE6
:1015F4000F0EF420F76E0900F5CF05F00900F5CFC2
:1016040006F00900F5CF07F00A00F5CF08F0E1EC89
:1016140014F001C0ADF002C0AEF003C0AFF004C0DE
:10162400B0F0ADC00EF0AEC00FF0AFC010F0B0C05F
:1016340011F00A0E126E000E136E000E146E000EE0
:10164400156E5AEC15F00EC0ADF00FC0AEF010C020
:10165400AFF011C0B0F00001AD51300F7EEC16F0C8
:10166400B1C00EF0B2C00FF0B3C010F0B4C011F0AE
:101674000001BC51040D010EF324F66E0F0EF4208C
:10168400F76E0900F5CF12F00900F5CF13F0090049
:10169400F5CF14F00A00F5CF15F05AEC15F00EC092
:1016A400B1F00FC0B2F010C0B3F011C0B4F000013B
:1016B400BC07BC29D8B408D08DD7300E7EEC16F008
:1016C4000001BA07D8A0BB07BA51BB11D8B407D1DF
:1016D400F4D7A7C0D9FFA8C0DAFFDECFB1F0DDCFC1
:1016E400B2F0000EB2BFFF0EB36FB46F020EA727A5
:1016F400000EA823B4AF0AD0030EA913B41FB31F5E
:10170400B21FB16D000EB223B323B423BA51BB117F
:10171400D8A408D0B151B211B311B411D8A402D0D5
:10172400BA4BBB2B010EBC6F0A0EBC19D8B418D02F
:10173400BC51040D010EF324F66E0F0EF420F76E67
:101744000900F550B15D0900F550B2590900F55092
:10175400B3590900F550B459D8A002D0BC2BE4D732
:10176400800EBCBF7F0E456EBA51BC5DBB51800A72
:101774004558D8B003D0BAC0BCF010D0BB51800AD1
:10178400456EBC51BA5D800EBCBF7F0E4558D8B0C3
:1017940005D0BC51BA6FBB6BBABFBB07AB51AC1120
:1017A400D8B40DD0030EA915456E000EAA15466EC9
:1017B40045504610D8B403D0AB07D8A0AC07AAADA7
:1017C40013D0AB51BA5DBB51800A456EAC51800A4F
:1017D4004558D8B005D0BA51AB5FBB51AC5B04D00F
:1017E400000EAC6F000EAB6F800EBCBF7F0E456E5B
:1017F400AB51BC5DAC51800A4558D8B007D0BC5140
:10180400AB5F000EBCBFFF0EAC5B04D0000EAC6F30
:10181400000EAB6FAB51AC11D8B40BD0200E7EECE4
:1018240016F00001AB07D8A0AC07AB51AC11D8A49B
:10183400F5D7030EA915456E000EAA15466E455040
:101844004610D8B443D02D0E7EEC16F03FD0BAC06B
:1018540045F0BBC046F0D89045364636D89045365C
:101864004636010E4524F66E0F0E4620F76E09002B
:10187400F5CF05F00900F5CF06F00900F5CF07F024
:101884000A00F5CF08F0B1C001F0B2C002F0B3C055
:1018940003F0B4C004F0E1EC14F001C00EF002C097
:1018A4000FF003C010F004C011F00A0E126E000E07
:1018B400136E000E146E000E156E5AEC15F00E50D9
:1018C400300F0001BC6FBC517EEC16F00001BA076A
:1018D400D8A0BB07BA29BBE1BB29D8A4B8D740C05C
:1018E400F6FF41C0F7FF404A412A0800F5CFBCF09B
:1018F4000001BC51D8B41200D9EF07F02A6E2AAE09
:1019040001D12A6C2A50800A120FD8A091D0000E5F
:10191400126E030E116E000E0A6E0A0E096E000E90
:10192400046E640E036E2A50016E026A01BE020642
:1019340022EC15F001C007F002C008F09FEC14F08F
:10194400090E07240F6E000E0820106E38EC16F0F6
:10195400500E0F24F66E0F0E1020F76E0900F5CF0F
:1019640018F00900F5CF19F00A00F5CF1AF0000EAF
:101974000A6E640E096E2A50076E086A07BE0806CE
:101984009FEC14F0120E07240F6E000E0820106E48
:10199400000E126E030E116E38EC16F0500E0F246A
:1019A400F66E0F0E1020F76E0900F5CF15F0090042
:1019B400F5CF16F00A00F5CF17F099EC12F015C028
:1019C40027F016C028F017C029F027C015F028C04A
:1019D40016F029C017F0000E126E030E116E000EE1
:1019E400046E0A0E036E2A50016E026A01BE0206DC
:1019F40022EC15F001C00FF002C010F038EC16F024
:101A0400500E0F24F66E0F0E1020F76E0900F5CF5E
:101A140018F00900F5CF19F00A00F5CF1AF099EC87
:101A240012F015C024F016C025F017C026F01200DD
:101A34002A50800A750FD8A053D0000E0A6E0A0EE1
:101A4400096E2A50076E086A07BE08069FEC14F058
:101A5400090E07240F6E000E0820106E000E126E81
:101A6400030E116E38EC16F0500E0F24F66E0F0EA6
:101A74001020F76E0900F5CF15F00900F5CF16F028
:101A84000A00F5CF17F0000E126E030E116E000E51
:101A9400046E0A0E036E2A50016E026A01BE02062B
:101AA40022EC15F001C00FF002C010F038EC16F073
:101AB400500E0F24F66E0F0E1020F76E0900F5CFAE
:101AC40018F00900F5CF19F00A00F5CF1AF099ECD7
:101AD40012F015C024F016C025F017C026F012002D
:101AE4002A50030D500EF324F66E0F0EF420F76EF9
:101AF4000900F5CF24F00900F5CF25F00A00F5CF51
:101B040026F012002A50800A120FD8A091D0000E9D
:101B1400126E030E116E000E0A6E0A0E096E000E8E
:101B2400046E640E036E2A50016E026A01BE020640
:101B340022EC15F001C007F002C008F09FEC14F08D
:101B4400090E07240F6E000E0820106E38EC16F0F4
:101B5400290E0F24F66E0F0E1020F76E0900F5CF34
:101B640018F00900F5CF19F00A00F5CF1AF0000EAD
:101B74000A6E640E096E2A50076E086A07BE0806CC
:101B84009FEC14F0120E07240F6E000E0820106E46
:101B9400000E126E030E116E38EC16F0290E0F248F
:101BA400F66E0F0E1020F76E0900F5CF15F0090040
:101BB400F5CF16F00A00F5CF17F099EC12F015C026
:101BC40027F016C028F017C029F027C015F028C048
:101BD40016F029C017F0000E126E030E116E000EDF
:101BE400046E0A0E036E2A50016E026A01BE0206DA
:101BF40022EC15F001C00FF002C010F038EC16F022
:101C0400290E0F24F66E0F0E1020F76E0900F5CF83
:101C140018F00900F5CF19F00A00F5CF1AF099EC85
:101C240012F015C024F016C025F017C026F01200DB
:101C34002A50800A750FD8A053D0000E0A6E0A0EDF
:101C4400096E2A50076E086A07BE08069FEC14F056
:101C5400090E07240F6E000E0820106E000E126E7F
:101C6400030E116E38EC16F0290E0F24F66E0F0ECB
:101C74001020F76E0900F5CF15F00900F5CF16F026
:101C84000A00F5CF17F0000E126E030E116E000E4F
:101C9400046E0A0E036E2A50016E026A01BE020629
:101CA40022EC15F001C00FF002C010F038EC16F071
:101CB400290E0F24F66E0F0E1020F76E0900F5CFD3
:101CC40018F00900F5CF19F00A00F5CF1AF099ECD5
:101CD40012F015C024F016C025F017C026F012002B
:101CE4002A50030D290EF324F66E0F0EF420F76E1E
:101CF4000900F5CF24F00900F5CF25F00A00F5CF4F
:101D040026F012002D6E6D0E2D649FD0000E126E03
:101D1400030E116E000E0A6E0A0E096E000E046E9A
:101D2400640E036E2DC001F0026A22EC15F001C0AE
:101D340007F002C008F09FEC14F0090E07240F6EA0
:101D4400000E0820106E38EC16F0500E0F24F66EBC
:101D54000F0E1020F76E0900F5CF18F00900F5CF2B
:101D640019F00A00F5CF1AF0000E0A6E640E096E1F
:101D74002DC007F0086A9FEC14F0120E07240F6EB2
:101D8400000E0820106E000E126E030E116E38EC59
:101D940016F0500E0F24F66E0F0E1020F76E090089
:101DA400F5CF15F00900F5CF16F00A00F5CF17F0BE
:101DB40099EC12F015C02AF016C02BF017C02CF0C5
:101DC400000E126E030E116E000E046E0A0E036EE8
:101DD4002DC001F0026A22EC15F001C00FF002C020
:101DE40010F038EC16F0500E0F24F66E0F0E102083
:101DF400F76E0900F5CF18F00900F5CF19F00A00C5
:101E0400F5CF1AF02AC015F02BC016F02CC017F02D
:101E140099EC12F015C027F016C028F017C029F06D
:101E240027C015F028C016F029C017F0000E186E50
:101E3400000E196E3F0E1A6E99EC12F015C024F0C4
:101E440016C025F017C026F012000A0E2D6463D0C8
:101E5400000E126E030E116E000E046E0A0E036E57
:101E64002DC001F0026A22EC15F001C00FF002C08F
:101E740010F038EC16F0500E0F24F66E0F0E1020F2
:101E8400F76E0900F5CF18F00900F5CF19F00A0034
:101E9400F5CF1AF0000E0A6E0A0E096E2DC007F077
:101EA400086A9FEC14F0090E07240F6E000E082038
:101EB400106E000E126E030E116E38EC16F0500EFA
:101EC4000F24F66E0F0E1020F76E0900F5CF15F0F3
:101ED4000900F5CF16F00A00F5CF17F099EC12F0CF
:101EE40015C02AF016C02BF017C02CF02AC015F02C
:101EF4002BC016F02CC017F0000E186E000E196ED1
:101F04003F0E1A6E99EC12F015C024F016C025F09D
:101F140017C026F012002D50030D500EF324F66E58
:101F24000F0EF420F76E0900F5CF15F00900F5CF78
:101F340016F00A00F5CF17F0000E186E000E196E99
:101F44003F0E1A6E99EC12F015C024F016C025F05D
:101F540017C026F01200700ED36E9B8C010EC26E59
:101F6400180EC16E960EC06E010E0F015D6F000E4D
:101F74005C6F010E926E000E936E000E946E000E56
:101F8400956E000E966EA20EAC6E980EAB6E400E61
:101F9400A76E670EAF6ED1C0BDF0D2C0BEF0D3C085
:101FA400BFF0000E0001CB6F000ECA6F000EC46FAD
:101FB400000EC36F000EC76F000EC86F000EC96F0E
:101FC400000ECE6F000ECF6F000ED06F000EC06FEC
:101FD400A00EC16F400EC26F0F0EC66FC569000E12
:101FE4000001CD6F000ECC6FCDBF06D0110ECC5DBD
:101FF400270ECD59D8B025D0C3511DEC16F001C021
:10200400CAF002C0CBF0CAC009F0CBC00AF05DEC44
:1020140016F009C02EF00AC02FF00BC030F0CEC06D
:1020240031F0CFC032F0D0C033F096EC10F02EC0B7
:10203400CEF02FC0CFF030C0D0F00001CC4BCD2B70
:10204400D3D7CEC024F0CFC025F0D0C026F0400EA8
:10205400276E1C0E286E460E296E8DEC13F024C0DC
:10206400CEF025C0CFF026C0D0F0CEC018F0CFC03F
:1020740019F0D0C01AF0C0C015F0C1C016F0C2C02B
:1020840017F099EC12F015C024F016C025F017C013
:1020940026F0C5C009F0C6C00AF001EC16F009C06C
:1020A40027F00AC028F00BC029F08DEC13F024C0EF
:1020B400C7F025C0C8F026C0C9F0150E4B6EC60E79
:1020C400E82EFED74B2EFCD700D0860E406E0F0EA6
:1020D400416ECEC042F0CFC043F0D0C044F0D2EC49
:1020E40007F0770E406E0F0E416EC7C042F0C8C0B5
:1020F40043F0C9C044F0D2EC07F0920E406E0F0ECC
:10210400416ECAC042F0CBC043F0D2EC07F01A0EC5
:102114004C6E5E0E4B6E6E0EE82EFED74B2EFCD729
:102124004C2EFAD700D05BD730C034F0356A366A0B
:102134002F34343601E335803450396E33C034F0F3
:10214400356A366A3234343601E335803450386EB9
:102154003950D8B40BD03850395CD8B00ED039507F
:1021640000083824346E180E346407D031C02EF0C1
:1021740032C02FF033C030F012003850D8B40BD036
:102184003950385CD8B00ED0385000083924346E39
:10219400180E346407D02EC02EF02FC02FF030C09C
:1021A40030F01200060E376E30BE378E33BE378CD9
:1021B4002F8EFF0E2E16FF0E2F16000E3016328EA7
:1021C400FF0E3116FF0E3216000E33163850395CEE
:1021D400D8B01BD0D8903136323633363806395021
:1021E4003818D8B40DD0370637C034F0070E34167B
:1021F400D8B406D0EFD7D89030322F322E32392AC5
:1022040038503918D8B41FD0F6D73950385CD8B004
:102214001AD0D8902E362F36303639063950381821
:10222400D8B40DD0370637C034F0070E3416D8B4FE
:1022340006D0EFD7D890333232323132382A385080
:102244003918D8A4F7D737AE0CD0FF0E2E1AFF0ECC
:102254002F1AFF0E301A010E2E26000E2F22000E0A
:10226400302237AC0CD0FF0E311AFF0E321AFF0E9B
:10227400331A010E3126000E3222000E3322000ED4
:10228400376E2E5031262F5032223050332233AE47
:102294000ED0FF0E311AFF0E321AFF0E331A010E42
:1022A4003126000E3222000E3322010E376E31C069
:1022B40001F032C002F033C003F039C004F037C07B
:1022C40005F000EC14F001C02EF002C02FF003C0A2
:1022D40030F0120003C007F0086A096A02340736B6
:1022E40001E3088007500F6E0F50D8A409D0000EE8
:1022F400016E000E026E000E036E000E046E1200DC
:1023040006C007F0086A096A0534073601E3088045
:1023140007500E6E0E50D8A409D0000E016E000EA8
:10232400026E000E036E000E046E1200028EFF0E8B
:102334000116FF0E0216000E0316058EFF0E04167C
:10234400FF0E0516000E0616000E0A6E000E0B6E2A
:10235400000E0C6E000E0D6E7F0E0F5E0E50980F69
:102364000F5E180E0E6ED8900A360B360C360D36EC
:102374000450015C0550025806500358D8A007D0F9
:102384000450015E0550025A0650035A0A80D89040
:102394000136023603360E2EE6D70FAE16D00F5096
:1023A400800A970FD8B009D0000E016E000E026E9D
:1023B400000E036E000E046E1200D8900D320C3223
:1023C4000B320A320F3EF9D715D0170E0F640FD017
:1023D400000E016E000E026E000E036E000E046EFF
:1023E4001200D8900A360B360C360D360F060F50F5
:1023F400D8A4F7D70AC001F00BC002F00CC003F058
:102404000DC004F01200033404340C6E0C50D8A434
:1024140009D0000E016E000E026E000E036E000E57
:10242400046E1200063407340B6E0B50D8A409D086
:10243400000E016E000E026E000E036E000E046E9E
:102444001200038EFF0E0116FF0E0216FF0E031676
:10245400000E0416068EFF0E0416FF0E0516FF0E60
:102464000616000E0716000E076E000E086E000E0C
:10247400096E000E0A6E7F0E0C5E0B50A00F0C5EF0
:10248400200E0B6ED8900736083609360A360450EB
:10249400015C055002580650035807500458D8A050
:1024A40009D00450015E0550025A0650035A0750E1
:1024B400045A0780D89001360236033604360B2EB0
:1024C400E1D70CAE16D00C50800A9F0FD8B009D0BB
:1024D400000E016E000E026E000E036E000E046EFE
:1024E4001200D8900A320932083207320C3EF9D76A
:1024F40015D01F0E0C640FD0000E016E000E026E7C
:10250400000E036E000E046E1200D89007360836D3
:1025140009360A360C060C50D8A4F7D707C001F0C8
:1025240008C002F009C003F00AC004F0120017C08A
:102534001BF01C6A1D6A16341B3601E31C801B50F9
:102544001E6E1E50D8A407D0000E156E000E166E17
:10255400000E176E12001AC01BF01C6A1D6A193493
:102564001B3601E31C801B50236E2350D8A407D0D4
:10257400000E156E000E166E000E176E120023501C
:102584007B0F1E2617C023F01A50231A800E231621
:10259400168E198EFF0E1816FF0E1916000E1A1637
:1025A400000E1F6E000E206E000E216E070E226EAE
:1025B40015A006D018501F26195020221A50212287
:1025C400D890173216321532D890183619361A3672
:1025D400222EEED7090E226E15A006D018501F2603
:1025E400195020221A502122D8901732163215324F
:1025F400D890213220321F32222EEED71FC001F094
:1026040020C002F021C003F01EC004F023C005F076
:1026140000EC14F001C015F002C016F003C017F06E
:1026240012002DC02FF0306A316A2C342F3601E3AA
:1026340030802F50396E3950D8A409D0000E2B6E3B
:10264400000E2C6E000E2D6E000E2E6E1200170E54
:102654002F6E2BC030F02CC031F02DC032F02F285B
:10266400336E04D0D890323231323032332EFAD72E
:102674003050346E2C8EFF0E2B16FF0E2C16000ECF
:102684002D162B50356E2C50366E2D50376E386A01
:102694008E0E395E39AE16D03950800A8F0FD8B0FD
:1026A40009D0000E2B6E000E2C6E000E2D6E000E47
:1026B4002E6E1200D8903832373236323532393EE7
:1026C400F9D715D0170E39640FD0000E2B6E000EFB
:1026D4002C6E000E2D6E000E2E6E1200D890353624
:1026E40036363736383639063950D8A4F7D7345009
:1026F400D8B408D0381E371E361E356C000E36226C
:102704003722382235C02BF036C02CF037C02DF0DC
:1027140038C02EF0120026C02AF02B6A2C6A253409
:102724002A3601E32B802A50316E3150D8A407D0C9
:10273400000E246E000E256E000E266E120029C0B7
:102744002AF02B6A2C6A28342A3601E32B802A507B
:10275400326E3250D8A407D0000E246E000E256EBF
:10276400000E266E1200000E2E6E000E2F6E000E4E
:10277400306E3250890F315E26C032F02950321A41
:10278400800E3216258EFF0E2416FF0E2516000E1F
:102794002616288EFF0E2716FF0E2816000E291661
:1027A400180E2D6ED8902E362F3630362750245CD6
:1027B4002850255829502658D8A007D02750245EE1
:1027C4002850255A2950265A2E80D890243625364A
:1027D40026362D2EE7D72EC001F02FC002F030C0D0
:1027E40003F031C004F032C005F000EC14F001C075
:1027F40024F002C025F003C026F012000450D8B41F
:1028040005D0015002100310D8A40CD0000E016EA4
:10281400000E026E000E036E1200042AD8900332DA
:1028240002320132000E0114066E000E0214076E0D
:10283400FE0E0314086E065007100810D8B40CD00E
:10284400ECD7042A010E0126000E0222000E0322F8
:10285400D890033202320132000E0114066E000ECB
:102864000214076EFF0E0314086E065007100810BA
:10287400D8B406D0E6D70406D8900136023603361B
:1028840002BE03D0020E0460F6D704A0029ED890C4
:102894000432045003120550D8A4038E01C001F081
:1028A40002C002F003C003F0120003AE16D001C050
:1028B40007F002C008F003C009F0071E081E091E35
:1028C400072A000E08220922000E0724016E000EBA
:1028D4000820026E800E0920036E06AE16D004C0D6
:1028E40007F005C008F006C009F0071E081E091EFF
:1028F400072A000E08220922000E0724046E000E87
:102904000820056E800E0920066E000E011A000EC6
:10291400021A800E031A000E041A000E051A800E05
:10292400061A0450015C0550025806500358D8B0EA
:1029340002D0D8901200D8801200000E0C6E0AAE9D
:1029440006D0096C0A1ED8B00A2A010E0C6E08AE15
:1029540006D0076C081ED8B0082A010E0C1A000E07
:102964000E6E000E0D6E09500A10D8B41CD0010E64
:102974000B6E04D0D89009360A360B2A0AAEFAD761
:10298400D8900D360E360950075C0A500858D8A066
:1029940005D00950075E0A50085A0D80D8900A32B3
:1029A40009320B2EEDD70C50D8B404D00D6C0E1E8A
:1029B400D8B00E2A0DC007F00EC008F01200000EA9
:1029C400096E000E0A6E000E0B6E000E0C6E0550A2
:1029D400061007100810D8B42AD0010E0D6E06D0C8
:1029E400D89005360636073608360D2A08AEF8D7CD
:1029F400D89009360A360B360C360550015C065061
:102A040002580750035808500458D8A009D005505C
:102A1400015E0650025A0750035A0850045A0980AE
:102A2400D89008320732063205320D2EE1D709C09C
:102A340001F00AC002F00BC003F00CC004F0120055
:102A4400000E066E02AE06D0016C021ED8B0022A39
:102A5400010E066E04AE04D0036C041ED8B0042A22
:102A640003500410D8B418D0010E056E04D0D890C9
:102A740003360436052A04AEFAD70350015C045029
:102A84000258D8A004D00350015E0450025AD890D2
:102A940004320332052EF1D70650D8B404D0016CA9
:102AA400021ED8B0022A01C001F002C002F01200D6
:102AB4001250131014101510D8B424D0010E166E31
:102AC40006D0D8901236133614361536162A15AE9B
:102AD400F8D712500E5C13500F581450105815505C
:102AE4001158D8A008D012500E5E13500F5A14502B
:102AF400105A1550115AD89015321432133212321A
:102B0400162EE7D70EC00EF00FC00FF010C010F055
:102B140011C011F012008E0E116E06D0D8900C3236
:102B24000B320A320932112A000E09140D6E000EFE
:102B34000A140E6E000E0B140F6EFF0E0C14106EA2
:102B44000D500E100F101010D8A4E8D709C001F0D2
:102B54000AC002F00BC003F011C004F0000E056EB1
:102B640000EC14F001C009F002C00AF003C00BF03D
:102B74001200080EF66E2D0EF76E000EF86E0900A8
:102B8400F5CFD1F00900F5CFD2F00900F5CFD3F09D
:102B940001EE00F0440EEE6AE806FDE100EE60F09E
:102BA400440EEE6AE806FDE100EE4DF0070EEE6A13
:102BB400E806FDE1000EF86E0001ADEF0FF03D50A8
:102BC4003E103F10D8B406D0000E3D1A000E3E1A37
:102BD400800E3F1A3AC02EF03BC02FF03CC030F0BC
:102BE4003DC031F03EC032F03FC033F096EC10F0FF
:102BF4002EC03AF02FC03BF030C03CF01200000E63
:102C04000C6E0AAE06D0096C0A1ED8B00A2A010E50
:102C14000C6E09C001F00AC002F0036A8E0E046E45
:102C24000CC005F000EC14F001C009F002C00AF079
:102C340003C00BF01200056E05C003F00346034603
:102C4400C2500318830B0318C26EC282C2B2FED7ED
:102C5400C450046E036AC3500324526E000E042051
:102C6400536E52C001F053C002F012000F50110213
:102C7400F3CF13F0F4CF14F00F501202F3501426D4
:102C840010501102F350142613C00FF014C010F0AA
:102C94001200015002100310D8B406D0000E011A1D
:102CA400000E021A800E031A01C001F002C002F0E5
:102CB40003C003F0120009C001F00AC002F0036A65
:102CC4008E0E046E000E056E00EC14F001C009F0C7
:102CD40002C00AF003C00BF01200036E000E026E75
:102CE4003A0E036005D02F0E036402D0010E026E6B
:102CF40002C001F001301200016E9EA8FED701C08F
:072D0400ADFF1200323400A4
:020000040020DA
:08000000FFFFFFFFFFFFFFFF00
:020000040030CA
:0E0000001D18797CFF8991FF0FC00FE00F40A3
:00000001FF
